{
  "contractName": "IdentityManagement",
  "abi": [
    {
      "constant": true,
      "inputs": [],
      "name": "identityCount",
      "outputs": [
        {
          "name": "",
          "type": "uint256"
        }
      ],
      "payable": false,
      "stateMutability": "view",
      "type": "function",
      "signature": "0x38678ba5"
    },
    {
      "constant": true,
      "inputs": [
        {
          "name": "",
          "type": "uint256"
        }
      ],
      "name": "addressList",
      "outputs": [
        {
          "name": "",
          "type": "address"
        }
      ],
      "payable": false,
      "stateMutability": "view",
      "type": "function",
      "signature": "0xb810fb43"
    },
    {
      "constant": true,
      "inputs": [
        {
          "name": "",
          "type": "address"
        }
      ],
      "name": "identities",
      "outputs": [
        {
          "name": "id",
          "type": "uint256"
        },
        {
          "name": "name",
          "type": "string"
        },
        {
          "name": "email",
          "type": "string"
        }
      ],
      "payable": false,
      "stateMutability": "view",
      "type": "function",
      "signature": "0xf653b81e"
    },
    {
      "inputs": [],
      "payable": false,
      "stateMutability": "nonpayable",
      "type": "constructor",
      "signature": "constructor"
    },
    {
      "anonymous": false,
      "inputs": [
        {
          "indexed": false,
          "name": "owner",
          "type": "address"
        },
        {
          "indexed": false,
          "name": "id",
          "type": "uint256"
        },
        {
          "indexed": false,
          "name": "name",
          "type": "string"
        },
        {
          "indexed": false,
          "name": "email",
          "type": "string"
        }
      ],
      "name": "IdentityCreated",
      "type": "event",
      "signature": "0x9c254ab278538e330e72015704271df978c58ba2670594f1159fd092ce1e15b3"
    },
    {
      "constant": false,
      "inputs": [
        {
          "name": "_name",
          "type": "string"
        },
        {
          "name": "_email",
          "type": "string"
        }
      ],
      "name": "createIdentity",
      "outputs": [],
      "payable": false,
      "stateMutability": "nonpayable",
      "type": "function",
      "signature": "0xa309e6e1"
    },
    {
      "constant": true,
      "inputs": [
        {
          "name": "_address",
          "type": "address"
        }
      ],
      "name": "isAddressAdded",
      "outputs": [
        {
          "name": "",
          "type": "bool"
        }
      ],
      "payable": false,
      "stateMutability": "view",
      "type": "function",
      "signature": "0x72a28289"
    }
  ],
  "bytecode": "0x6080604052600080553480156200001557600080fd5b506200009b6040805190810160405280600a81526020017f4d696b65204164616d73000000000000000000000000000000000000000000008152506040805190810160405280600a81526020017f6d6b406162632e636f6d00000000000000000000000000000000000000000000815250620000a1640100000000026401000000009004565b620003a9565b620000b533640100000000620002a0810204565b1515620000fe576001805480820182556000919091527fb10e2d527612073b26eecdfd717e6a320cf44b4afac2b0732d9fcbe2b7fa0cf6018054600160a060020a031916331790555b6000805460019081018083556040805160608101825291825260208083018781528383018790523386526002825291909420825181559051805192949193620001509390850192919091019062000304565b50604082015180516200016e91600284019160209091019062000304565b509050507f9c254ab278538e330e72015704271df978c58ba2670594f1159fd092ce1e15b33360005484846040518085600160a060020a0316600160a060020a031681526020018481526020018060200180602001838103835285818151815260200191508051906020019080838360005b83811015620001fa578181015183820152602001620001e0565b50505050905090810190601f168015620002285780820380516001836020036101000a031916815260200191505b50838103825284518152845160209182019186019080838360005b838110156200025d57818101518382015260200162000243565b50505050905090810190601f1680156200028b5780820380516001836020036101000a031916815260200191505b50965050505050505060405180910390a15050565b6000805b600154811015620002f95782600160a060020a0316600182815481101515620002c957fe5b600091825260209091200154600160a060020a03161415620002f0576001915050620002ff565b600101620002a4565b50600090505b919050565b828054600181600116156101000203166002900490600052602060002090601f016020900481019282601f106200034757805160ff191683800117855562000377565b8280016001018555821562000377579182015b82811115620003775782518255916020019190600101906200035a565b506200038592915062000389565b5090565b620003a691905b8082111562000385576000815560010162000390565b90565b6107fa80620003b96000396000f3fe60806040526004361061006c5763ffffffff7c010000000000000000000000000000000000000000000000000000000060003504166338678ba5811461007157806372a2828914610098578063a309e6e1146100df578063b810fb431461021b578063f653b81e14610261575b600080fd5b34801561007d57600080fd5b50610086610379565b60408051918252519081900360200190f35b3480156100a457600080fd5b506100cb600480360360208110156100bb57600080fd5b5035600160a060020a031661037f565b604080519115158252519081900360200190f35b3480156100eb57600080fd5b506102196004803603604081101561010257600080fd5b81019060208101813564010000000081111561011d57600080fd5b82018360208201111561012f57600080fd5b8035906020019184600183028401116401000000008311171561015157600080fd5b91908080601f01602080910402602001604051908101604052809392919081815260200183838082843760009201919091525092959493602081019350359150506401000000008111156101a457600080fd5b8201836020820111156101b657600080fd5b803590602001918460018302840111640100000000831117156101d857600080fd5b91908080601f0160208091040260200160405190810160405280939291908181526020018383808284376000920191909152509295506103de945050505050565b005b34801561022757600080fd5b506102456004803603602081101561023e57600080fd5b50356105d4565b60408051600160a060020a039092168252519081900360200190f35b34801561026d57600080fd5b506102946004803603602081101561028457600080fd5b5035600160a060020a03166105fc565b604051808481526020018060200180602001838103835285818151815260200191508051906020019080838360005b838110156102db5781810151838201526020016102c3565b50505050905090810190601f1680156103085780820380516001836020036101000a031916815260200191505b50838103825284518152845160209182019186019080838360005b8381101561033b578181015183820152602001610323565b50505050905090810190601f1680156103685780820380516001836020036101000a031916815260200191505b509550505050505060405180910390f35b60005481565b6000805b6001548110156103d35782600160a060020a03166001828154811015156103a657fe5b600091825260209091200154600160a060020a031614156103cb5760019150506103d9565b600101610383565b50600090505b919050565b6103e73361037f565b151561043c576001805480820182556000919091527fb10e2d527612073b26eecdfd717e6a320cf44b4afac2b0732d9fcbe2b7fa0cf601805473ffffffffffffffffffffffffffffffffffffffff1916331790555b600080546001908101808355604080516060810182529182526020808301878152838301879052338652600282529190942082518155905180519294919361048c93908501929190910190610733565b50604082015180516104a8916002840191602090910190610733565b509050507f9c254ab278538e330e72015704271df978c58ba2670594f1159fd092ce1e15b33360005484846040518085600160a060020a0316600160a060020a031681526020018481526020018060200180602001838103835285818151815260200191508051906020019080838360005b8381101561053257818101518382015260200161051a565b50505050905090810190601f16801561055f5780820380516001836020036101000a031916815260200191505b50838103825284518152845160209182019186019080838360005b8381101561059257818101518382015260200161057a565b50505050905090810190601f1680156105bf5780820380516001836020036101000a031916815260200191505b50965050505050505060405180910390a15050565b60018054829081106105e257fe5b600091825260209091200154600160a060020a0316905081565b60026020818152600092835260409283902080546001808301805487519281161561010002600019011695909504601f81018590048502820185019096528581529094919390929091908301828280156106975780601f1061066c57610100808354040283529160200191610697565b820191906000526020600020905b81548152906001019060200180831161067a57829003601f168201915b50505060028085018054604080516020601f60001961010060018716150201909416959095049283018590048502810185019091528181529596959450909250908301828280156107295780601f106106fe57610100808354040283529160200191610729565b820191906000526020600020905b81548152906001019060200180831161070c57829003601f168201915b5050505050905083565b828054600181600116156101000203166002900490600052602060002090601f016020900481019282601f1061077457805160ff19168380011785556107a1565b828001600101855582156107a1579182015b828111156107a1578251825591602001919060010190610786565b506107ad9291506107b1565b5090565b6107cb91905b808211156107ad57600081556001016107b7565b9056fea165627a7a72305820365257119fd813058624bcebca5e915b5ac15d5cbc348093eedd8d217e53a22e0029",
  "source": "pragma solidity ^0.5.0;\n\ncontract IdentityManagement {\n    uint public identityCount = 0;\n    address[] public addressList;\n\n    struct Identity {\n        uint id;\n        string name;\n        string email;\n    }\n\n    mapping(address => Identity) public identities;\n    \n    constructor() public {\n        createIdentity(\"Mike Adams\", \"mk@abc.com\");  \n    }\n\n    event IdentityCreated (\n        address owner,\n        uint id,\n        string name,\n        string email\n    );\n    \n    function createIdentity(string memory _name, string memory _email) public {\n\n        if(!isAddressAdded(msg.sender)) {\n            addressList.push(msg.sender);\n        }\n\n        identityCount ++;\n        identities[msg.sender] = Identity(identityCount, _name, _email);\n        emit IdentityCreated(msg.sender, identityCount, _name, _email);\n    }\n\n    function isAddressAdded(address _address) public view returns (bool) {\n        for (uint i = 0; i < addressList.length; i++) {\n            if (addressList[i] == _address) {\n                return true;\n            }\n        }\n        return false;\n    }\n}",
  "sourcePath": "/Users/harman/Main Folder/Mission MS/Coursework/Fall 23/Security/Project/eth-todo-list/contracts/IdentityManagement.sol",
  "compiler": {
    "name": "solc",
    "version": "0.5.0+commit.1d4f565a.Emscripten.clang"
  },
  "schemaVersion": "3.0.1",
  "updatedAt": "2023-11-10T19:11:11.523Z",
  "devdoc": {
    "methods": {}
  },
  "userdoc": {
    "methods": {}
  }
}